:100000000C9462000C948A000C948A000C948A0070
:100010000C948A000C948A000C948A000C948A0038
:100020000C948A000C948A000C948A000C948A0028
:100030000C948A000C948A000C948A000C948A0018
:100040000C9412030C948A000C94E0020C94BA02F3
:100050000C948A000C948A000C948A000C948A00F8
:100060000C948A000C948A000000000024002700F1
:100070002A0000000000250028002B0000000000DE
:1000800023002600290004040404040404040202DA
:100090000202020203030303030301020408102007
:1000A0004080010204081020010204081020000012
:1000B0000008000201000003040700000000000027
:1000C00000003A0511241FBECFEFD8E0DEBFCDBF40
:1000D00011E0A0E0B1E0EEEAFDE002C005900D9273
:1000E000A631B107D9F721E0A6E1B1E001C01D9228
:1000F000AF3CB207E1F710E0C2E6D0E004C02197C0
:10010000FE010E94CF06C136D107C9F70E945C03E9
:100110000C94D5060C940000AF92BF92CF92DF9260
:10012000EF92FF920F931F93CF93DF936C017B01AC
:100130008B01040F151FEB015E01AE18BF08C0173D
:10014000D10759F06991D601ED91FC910190F081B0
:10015000E02DC6010995892B79F7C501DF91CF9173
:100160001F910F91FF90EF90DF90CF90BF90AF90D5
:100170000895FC01538D448D252F30E0842F90E0AD
:10018000821B930B541710F0CF9608950197089592
:10019000FC01918D828D981761F0A28DAE0FBF2F5B
:1001A000B11D5D968C91928D9F5F9F73928F90E0B1
:1001B00008958FEF9FEF0895FC01918D828D981720
:1001C00031F0828DE80FF11D858D90E008958FEF5D
:1001D0009FEF0895FC01918D228D892F90E0805C26
:1001E0009F4F821B91098F73992708958FE291E0A9
:1001F0000E94EA0021E0892B09F420E0822F089573
:1002000080E090E0892B29F00E94F60081110C9487
:1002100000000895FC01A48DA80FB92FB11DA35AA9
:10022000BF4F2C91848D90E001968F739927848F16
:10023000A689B7892C93A089B1898C918370806439
:100240008C93938D848D981306C00288F389E02DDA
:1002500080818F7D80830895EF92FF920F931F938B
:10026000CF93DF93EC0181E0888F9B8D8C8D981369
:100270001AC0E889F989808185FF15C09FB7F89475
:10028000EE89FF896083E889F989808183708064C1
:1002900080839FBF81E090E0DF91CF911F910F910C
:1002A000FF90EF900895F62E0B8D10E00F5F1F4F1B
:1002B0000F731127E02E8C8D8E110CC00FB607FC2A
:1002C000FACFE889F989808185FFF5CFCE010E94B8
:1002D0000A01F1CFEB8DEC0FFD2FF11DE35AFF4F1B
:1002E000F0829FB7F8940B8FEA89FB898081806246
:1002F000CFCFCF93DF93EC01888D8823B9F0AA8903
:10030000BB89E889F9898C9185FD03C0808186FDD0
:100310000DC00FB607FCF7CF8C9185FFF2CF80811F
:1003200085FFEDCFCE010E940A01E9CFDF91CF9189
:100330000895833081F028F4813099F08230A9F05B
:1003400008958730A9F08830C9F08430B1F48091E5
:1003500080008F7D03C0809180008F778093800024
:10036000089584B58F7784BD089584B58F7DFBCFC4
:100370008091B0008F778093B00008958091B00095
:100380008F7DF9CFCF93DF93282F30E0F901E2552D
:10039000FF4F8491F901E656FF4FD491F901EA57D6
:1003A000FF4FC491CC23A1F081110E949901EC2F41
:1003B000F0E0EE0FFF1FE458FF4FA591B491EC91D0
:1003C000ED2381E090E009F480E0DF91CF91089582
:1003D00080E090E0FACF1F93CF93DF93282F30E097
:1003E000F901E255FF4F8491F901E656FF4FD49190
:1003F000F901EA57FF4FC491CC23A9F0162F8111C0
:100400000E949901EC2FF0E0EE0FFF1FEE58FF4F16
:10041000A591B4918FB7F894EC91111108C0D095C3
:10042000DE23DC938FBFDF91CF911F910895DE2BE8
:10043000F8CFCF93DF9390E0FC01E656FF4F249175
:100440008A579F4FFC0184918823C9F090E0880F60
:10045000991FFC01E859FF4FA591B491FC01EE589A
:10046000FF4FC591D49161110DC09FB7F8948C9145
:10047000209582238C938881282328839FBFDF9136
:10048000CF910895623051F49FB7F8943C91822F38
:10049000809583238C93E8812E2BEFCF8FB7F89430
:1004A000EC912E2B2C938FBFEACF2FB7F89460914D
:1004B0001B0170911C0180911D0190911E012FBFA5
:1004C00008958E3008F08E508770806480937C0091
:1004D00080917A00806480937A0080917A0086FD12
:1004E000FCCF8091780060917900762F682F072EDD
:1004F000000C880B990B0E949F0520E030E040EA39
:1005000050E40E94030620E030E040E85AE30E94F5
:10051000030620E030E048EC52E40E9403060E940B
:100520006705CB0108951092CC011092CE01109274
:10053000CD0110921F011092200110922101109202
:100540002201109223011092240110922501109291
:100550002601109227011092280110922901109271
:100560002A0110922B0110922C0110922D01109251
:100570002E0108951F920F920FB60F9211242F9300
:100580003F934F935F936F937F938F939F93AF931B
:10059000BF93EF93FF938FE291E00E940A01FF91D6
:1005A000EF91BF91AF919F918F917F916F915F91EB
:1005B0004F913F912F910F900FBE0F901F90189564
:1005C0001F920F920FB60F9211242F938F939F9328
:1005D000EF93FF93E0913F01F09140018081E09122
:1005E0004501F091460182FD1BC090818091480138
:1005F0008F5F8F7320914901821741F0E09148018C
:10060000F0E0E15DFE4F958F80934801FF91EF91FF
:100610009F918F912F910F900FBE0F901F90189563
:100620008081F4CF1F920F920FB60F9211242F9357
:100630003F938F939F93AF93BF9380911B019091B2
:100640001C01A0911D01B0911E0130911A0123E0FF
:10065000230F2D3758F50196A11DB11D20931A01C6
:1006600080931B0190931C01A0931D01B0931E0168
:100670008091160190911701A0911801B091190174
:100680000196A11DB11D8093160190931701A093AF
:100690001801B0931901BF91AF919F918F913F9134
:1006A0002F910F900FBE0F901F90189526E8230FE3
:1006B0000296A11DB11DD2CFCF93DF93CDB7DEB788
:1006C000A9970FB6F894DEBF0FBECDBF789484B55E
:1006D000826084BD84B5816084BD85B5826085BD3E
:1006E00085B5816085BD80916E00816080936E00CC
:1006F00010928100809181008260809381008091BE
:10070000810081608093810080918000816080936E
:1007100080008091B10084608093B1008091B0002E
:1007200081608093B00080917A00846080937A0029
:1007300080917A00826080937A0080917A00816053
:1007400080937A0080917A00806880937A0010927A
:10075000C100E0913F01F091400182E08083E0918F
:100760003B01F0913C011082E0913D01F0913E018E
:100770008FEC808310924701E0914301F091440196
:1007800086E08083E0914101F091420180818061A7
:100790008083E0914101F0914201808188608083F3
:1007A000E0914101F0914201808180688083E09175
:1007B0004101F091420180818F7D808361E087E07B
:1007C0000E94190260E08EE00E94190261E088E058
:1007D0000E94190260E089E00E94190262E085E04F
:1007E0000E94190262E086E00E94190261E084E042
:1007F0000E94190261E087E00E94EB0161E088E05D
:100800000E94EB018EE090E00E9461028EE090E099
:100810000E946102C39734F0222423942092CD01D8
:100820002092CC0189E00E94C201892B31F433244B
:1008300033943092CE013092CC018091CC01882348
:1008400009F4C2C060E087E00E94EB0161E084E04F
:100850000E94EB0186E00E94C201892B21F460E036
:1008600088E00E94EB0185E00E94C201892B31F4EF
:100870000E94930261E088E00E94EB018091CD012B
:10088000882391F188E00E94C201019769F5A09048
:100890002701B0902801C0902901D0902A01E09052
:1008A0002B01F0902C0100912D0110912E0195014A
:1008B000A601B701C801A0E00E94C30609F08AC0E2
:1008C0000E9455028B019C0160932701109328011F
:1008D0008093290130932A0110922B0110922C0150
:1008E00010922D0110922E0188E00E94C201892BE6
:1008F00069F5A0901F01B0902001C0902101D09017
:100900002201E0902301F090240100912501109133
:1009100026019501A601B701C801A0E00E94C30607
:1009200009F07FC00E9455028B019C0160931F015A
:100930001093200180932101309322011092230112
:100940001092240110922501109226010E94550256
:100950009B01AC0119A28E010F5D1F4FCA01B901A5
:100960002AE030E040E050E00E949806605DF80127
:1009700062938F01211531054105510579F73097B3
:1009800061F001900020E9F73197AF01401B510B56
:10099000B8018FE291E00E948C0042E050E062E1F9
:1009A00071E08FE291E00E948C0080E0282E80E0D0
:1009B000382E232809F426CF0E94F600882309F454
:1009C00021CF0E9400001ECF61E087E00E94EB0172
:1009D00060E03DCF0E9455021B012C01612C712C5F
:1009E00043016AA33BA28CA35DA26EA27FA288A64C
:1009F00099A69B01AC0160E070E080E090E00E946D
:100A0000BA0620313742410551056105710581055E
:100A1000910509F00CF468CF60E088E00E94EB01DA
:100A200063CF0E9455021B012C01612C712C4301E4
:100A30006AA33BA28CA35DA26EA27FA288A699A600
:100A40009B01AC0160E070E080E090E00E94BA069B
:100A50002033354741055105610571058105910533
:100A600009F00CF473CF61E088E00E94EB010E9472
:100A700093026CCFEFE2F1E01382128288EE93E0F2
:100A8000A0E0B0E084839583A683B78384E091E0FF
:100A90009183808385EC90E09587848784EC90E057
:100AA0009787868780EC90E0918B808B81EC90E03B
:100AB000938B828B82EC90E0958B848B86EC90E01C
:100AC000978B868B118E128E138E148E08950E9432
:100AD0006E056894B1110C94FD0508950E94E2051D
:100AE00088F09F5798F0B92F9927B751B0F0E1F0EF
:100AF000660F771F881F991F1AF0BA95C9F714C09F
:100B0000B13091F00E94FC05B1E008950C94FC0511
:100B1000672F782F8827B85F39F0B93FCCF38695D7
:100B200077956795B395D9F73EF490958095709534
:100B300061957F4F8F4F9F4F0895E89409C097FBB1
:100B40003EF490958095709561957F4F8F4F9F4FA4
:100B50009923A9F0F92F96E9BB279395F6958795E8
:100B600077956795B795F111F8CFFAF4BB0F11F4AB
:100B700060FF1BC06F5F7F4F8F4F9F4F16C0882352
:100B800011F096E911C0772321F09EE8872F762F88
:100B900005C0662371F096E8862F70E060E02AF0C9
:100BA0009A95660F771F881FDAF7880F96958795B5
:100BB00097F9089557FD9058440F551F59F05F3F1E
:100BC00071F04795880F97FB991F61F09F3F79F06F
:100BD00087950895121613061406551FF2CF4695F1
:100BE000F1DF08C0161617061806991FF1CF869573
:100BF0007105610508940895E894BB276627772757
:100C0000CB0197F908950E9416060C9487060E945E
:100C1000790638F00E94800620F0952311F00C949C
:100C200070060C94760611240C94FD050E94DA05DA
:100C300070F3959FC1F3950F50E0551F629FF0012F
:100C4000729FBB27F00DB11D639FAA27F00DB11D48
:100C5000AA1F649F6627B00DA11D661F829F2227D1
:100C6000B00DA11D621F739FB00DA11D621F839F58
:100C7000A00D611D221F749F3327A00D611D231F2E
:100C8000849F600D211D822F762F6A2F11249F577C
:100C900050409AF0F1F088234AF0EE0FFF1FBB1F7F
:100CA000661F771F881F91505040A9F79E3F51053E
:100CB00080F00C9470060C94FD055F3FE4F3983EC1
:100CC000D4F3869577956795B795F795E7959F5FE8
:100CD000C1F7FE2B880F911D9695879597F908957A
:100CE00097F99F6780E870E060E008959FEF80ECDF
:100CF000089500240A941616170618060906089582
:100D000000240A9412161306140605060895092EE7
:100D10000394000C11F4882352F0BB0F40F4BF2B56
:100D200011F460FF04C06F5F7F4F8F4F9F4F089596
:100D3000A1E21A2EAA1BBB1BFD010DC0AA1FBB1FDF
:100D4000EE1FFF1FA217B307E407F50720F0A21B51
:100D5000B30BE40BF50B661F771F881F991F1A94BE
:100D600069F760957095809590959B01AC01BD01E8
:100D7000CF0108952A193B094C095D096E097F09C5
:100D8000800B910B08950024A7FD00942A173005CD
:100D90004005500560057005800590050895EE0F2B
:0E0DA000FF1F0590F491E02D0994F894FFCF09
:100DAE00000000002C018C00B9007901EA00C80097
:060DBE00DC000D0A00003C
:00000001FF
